:020000040000FA
:0400000007EF00F016
:0A0008005882CCED08F06DEF0BF00C
:1008000000456D70617465203D202564206D730086
:1008100052656420203D202564206D7300426C7574
:0B08200065203D202564206D73000062
:10082C002BC043F02CC044F02DC045F02EC046F038
:10083C002FC047F030C048F031C049F032C04AF008
:10084C004ABE2BEF04F02EEF04F0010E2FEF04F054
:10085C00000E416E426A41504210D8B438EF04F099
:10086C003AEF04F04AEF04F04A1E491E481E471E98
:10087C00461E451E441E436C000E44224522462251
:10088C004722482249224A22000165BF50EF04F05A
:10089C0052EF04F053EF04F0529265BF60EF04F096
:1008AC00655106E16405D8B05EEF04F060EF04F02A
:1008BC0066EF04F0000E3E6E010E3D6E6AEF04F022
:1008CC0064C03DF065C03EF062C03FF063C040F0D4
:1008DC0041504210D8A475EF04F077EF04F07EEF8E
:1008EC0004F052A47CEF04F07EEF04F081EF04F0EE
:1008FC003F06D8A04006000E4C6E1F0E4B6E000E2D
:10090C008B6F05EF05F04B06D8A04C066C0E4B24F4
:10091C00D96E000E4C20DA6E43C008F044C009F0CA
:10092C0045C00AF046C00BF047C00CF048C00DF0B3
:10093C0049C00EF04AC00FF00A0E106E000E116E78
:10094C00000E126E000E136E000E146E000E156E5D
:10095C00000E166E000E176E1AEC08F008C033F07D
:10096C0009C034F00AC035F00BC036F00CC037F0BB
:10097C000DC038F00EC039F00FC03AF033C01AF089
:10098C0035C01BF032EC0BF01A50300FDF6E3D0609
:10099C00D8A03E063F06D8A0400643C008F044C08D
:1009AC0009F045C00AF046C00BF047C00CF048C037
:1009BC000DF049C00EF04AC00FF00A0E106E000E7A
:1009CC00116E000E126E000E136E000E146E000EE1
:1009DC00156E000E166E000E176E56EC07F008C062
:1009EC0043F009C044F00AC045F00BC046F00CC0FF
:1009FC0047F00DC048F00EC049F00FC04AF04CBE95
:100A0C0010EF05F04C5008E14B04D8A010EF05F0A6
:100A1C0012EF05F042EF05F043504410451046101C
:100A2C004710481049104A10D8A41FEF05F021EFC9
:100A3C0005F089EF04F03EBE2EEF05F03E5006E1C6
:100A4C003D04D8B02CEF05F02EEF05F089EF04F043
:100A5C0040BE39EF05F0405008E13F04D8A039EF13
:100A6C0005F03BEF05F042EF05F052B240EF05F018
:100A7C0042EF05F089EF04F041504210D8A449EF41
:100A8C0005F04BEF05F052EF05F052A450EF05F0D6
:100A9C0052EF05F070EF05F04B06D8A04C06415014
:100AAC004210D8A45CEF05F05EEF05F064EF05F0A2
:100ABC00000E3C6E2B0E3B6E68EF05F0000E3C6E8C
:100ACC002D0E3B6E6C0E4B24D96E000E4C20DA6E44
:100ADC003BC0DFFF29C01EF02AC01FF06C0E4B2458
:100AEC00206E000E4C20216E3FC022F040C023F03F
:100AFC0049EC09F01EC029F01FC02AF012009380A7
:100B0C00938293849290929292949296000E836E1A
:100B1C00000E956E0F0EC16ECA92CA80FA0ECB6E85
:100B2C00CA9CCA9ACA98CA86F288F28CF28E000EB7
:100B3C00CC6ECA84000E0001A96F000EA86F000EC7
:100B4C00AB6F000EAA6F18EF06F09EA2B0EF05F087
:100B5C00B2EF05F0C9EF05F09E9256505710D8A48D
:100B6C00BAEF05F0BCEF05F0BEEF05F0684B692B52
:100B7C0054505510D8A4C5EF05F0C7EF05F0C9EFD8
:100B8C0005F0664B672B56045710D8A4D0EF05F030
:100B9C00D2EF05F018EF06F054045510D8A4D9EF95
:100BAC0005F0DBEF05F018EF06F0000E6B6F000E92
:100BBC006A6F6651685D6951800A516E6751800A8F
:100BCC005158D8B0ECEF05F0EEEF05F0F1EF05F071
:100BDC00808214EF06F06851665D6751800A516E91
:100BEC006951800A5158D8B0FEEF05F000EF06F0BD
:100BFC0003EF06F0808414EF06F06651681907E1E4
:100C0C0067516919D8A40DEF06F00FEF06F014EF39
:100C1C0006F08080000EAB6F010EAA6F000EA96F5C
:100C2C00010EA86F6A056B11D8B41FEF06F021EF07
:100C3C0006F0ABEF05F0A851A911D8B428EF06F0D7
:100C4C002AEF06F018EF06F0AA51AB11D8B431EF29
:100C5C0006F033EF06F04EEF06F07DEC0AF0BAEC3E
:100C6C000BF0010E0C6E010E11EC0BF0010E0001DD
:100C7C00A06F080EA16F68C0A2F069C0A3F082EC4F
:100C8C000BF0000E0001AB6F000EAA6F72EF06F0B6
:100C9C007DEC0AF0BAEC0BF0010E0C6E010E11ECAF
:100CAC000BF01D0E0001A06F080EA16F68C0A2F022
:100CBC0069C0A3F082EC0BF0010E0C6E020E11EC6D
:100CCC000BF0100E0001A06F080EA16F66C0A2F011
:100CDC0067C0A3F082EC0BF0000E0001A96F000EB0
:100CEC00A86F18EF06F007EF00F08EC0D9FF8FC089
:100CFC00DAFFDECFF6FFDDCFF7FF0800F550250A4F
:100D0C00D8A48BEF06F08DEF06F03AEF07F08EC00B
:100D1C00D9FF8FC0DAFFDE2A000EDD22000E0001A3
:100D2C00636F000E626F62C052F063C053F064696F
:100D3C0065698EC0D9FF8FC0DAFFDECFF6FFDDCF3D
:100D4C00F7FF0800F550640AD8B4AFEF06F0B1EF26
:100D5C0006F0C3EF06F08EC0D9FF8FC0DAFFDECFEE
:100D6C00F6FFDDCFF7FF0800F550690AD8A4C1EFF4
:100D7C0006F0C3EF06F003EF07F08EC0D9FF8FC06B
:100D8C00DAFFDE2A000EDD2290C0D9FF91C0DAFF17
:100D9C00DFCF4DF0020EDE26DFCF4EF0000EDD224F
:100DAC004DC0D9FF4EC0DAFFDECF92F0DDCF93F00D
:100DBC00000E93BFFF0E946F956F966F976F986FA1
:100DCC00996F8CC029F08DC02AF092C02BF093C083
:100DDC002CF094C02DF095C02EF096C02FF097C03B
:100DEC0030F098C031F099C032F016EC04F029C004
:100DFC008CF02AC08DF055EF07F08EC0D9FF8FC054
:100E0C00DAFFDECFF6FFDDCFF7FF0800F550250A3D
:100E1C00D8A413EF07F015EF07F02DEF07F08EC0F5
:100E2C00D9FF8FC0DAFFDE2A000EDD22000E0F6E16
:100E3C00250E0E6E8CC010F08DC011F0AAEC09F0CE
:100E4C00000E00018D6F010E8C6F55EF07F08EC0F8
:100E5C00D9FF8FC0DAFFDE2A000EDD22000E8D6F67
:100E6C00000E8C6F55EF07F08EC0D9FF8FC0DAFFE4
:100E7C00DECFF6FFDDCFF7FF0800F5500E6E0F6AE0
:100E8C008CC010F08DC011F0AAEC09F08EC0D9FF07
:100E9C008FC0DAFFDE2A000EDD2226EF07F01200EB
:100EAC00000E196E17BE5FEF07F05DEF07F071EFE4
:100EBC0007F0171E161E151E141E131E121E111ED1
:100ECC00106C000E1122122213221422152216224B
:100EDC001722010E196E0FBE78EF07F076EF07F0B0
:100EEC008AEF07F00F1E0E1E0D1E0C1E0B1E0A1E87
:100EFC00091E086C000E09220A220B220C220D225C
:100F0C000E220F22010E191A20EE1AF0070EDE6ABD
:100F1C00E806FDE2105011101210131014101510E9
:100F2C0016101710D8B49DEF07F09FEF07F0F1EFF4
:100F3C0007F0010E186EADEF07F0D8901036113691
:100F4C00123613361436153616361736182A17AECF
:100F5C00B2EF07F0B4EF07F0A3EF07F0D8901A3612
:100F6C001B361C361D361E361F36203621361050C9
:100F7C00085C1150095812500A5813500B58145051
:100F8C000C5815500D5816500E5817500F58D8A015
:100F9C00D2EF07F0D4EF07F0E5EF07F01050085E42
:100FAC001150095A12500A5A13500B5A14500C5A19
:100FBC0015500D5A16500E5A17500F5A1A80D890B9
:100FCC0017321632153214321332123211321032E9
:100FDC00182EB4EF07F01950D8B4F7EF07F0F9EF6B
:100FEC0007F009EF08F0211E201E1F1E1E1E1D1EDD
:100FFC001C1E1B1E1A6C000E1B221C221D221E22E4
:10100C001F22202221221AC008F01BC009F01CC08C
:10101C000AF01DC00BF01EC00CF01FC00DF020C05C
:10102C000EF021C00FF01200000E196E0FBE23EF50
:10103C0008F021EF08F035EF08F00F1E0E1E0D1E04
:10104C000C1E0B1E0A1E091E086C000E09220A2219
:10105C000B220C220D220E220F22010E196E17BE2E
:10106C003CEF08F03AEF08F04CEF08F0171E161E94
:10107C00151E141E131E121E111E106C000E1122B2
:10108C00122213221422152216221722105011108C
:10109C00121013101410151016101710D8B459EF95
:1010AC0008F05BEF08F0A3EF08F0010E186E69EF83
:1010BC0008F0D89010361136123613361436153611
:1010CC0016361736182A17AE6EEF08F070EF08F0C8
:1010DC005FEF08F01050085C1150095812500A5874
:1010EC0013500B5814500C5815500D5816500E58D0
:1010FC0017500F58D8A085EF08F087EF08F097EF3E
:10110C0008F01050085E1150095A12500A5A135028
:10111C000B5A14500C5A15500D5A16500E5A175093
:10112C000F5AD8901732163215321432133212323B
:10113C0011321032182E70EF08F01950D8B4A9EFF4
:10114C0008F0ABEF08F0BBEF08F00F1E0E1E0D1EE3
:10115C000C1E0B1E0A1E091E086C000E09220A2208
:10116C000B220C220D220E220F2208C008F009C0FF
:10117C0009F00AC00AF00BC00BF00CC00CF00DC04B
:10118C000DF00EC00EF00FC00FF012000600F2A210
:10119C00D2EF08F0D4EF08F02DEF09F056505710AD
:1011AC00D8A4DBEF08F0DDEF08F006EF09F054509F
:1011BC005510D8A4E4EF08F0E6EF08F006EF09F0BC
:1011CC00000E00016B6F010E6A6F8080F086F08854
:1011DC00000E696F000E686F000E676F000E666F71
:1011EC008086030E076E8A0E066E560EE82EFED70C
:1011FC00062EFCD7072EFAD7809680902AEF09F09E
:10120C0056045710D8A40DEF09F00FEF09F02AEF90
:10121C0009F054045510D8A416EF09F018EF09F092
:10122C002AEF09F0000E00016B6F000E6A6F000EC2
:10123C00576E000E566E000E556E000E546E809258
:10124C0080948090C7EC0BF0F29247EF09F0F0A07D
:10125C0032EF09F034EF09F03BEF09F0000E576E56
:10126C00010E566EF09047EF09F0F0A240EF09F036
:10127C0042EF09F047EF09F0000E556E010E546E67
:10128C00F0925892110052A04EEF09F050EF09F075
:10129C005AEF09F020C017F021C018F01EC019F049
:1012AC001FC01AF0EFEC0AF023BE5FEF09F061EFFC
:1012BC0009F067EF09F022C027F023C028F06BEF8C
:1012CC0009F0000E286E000E276E000E266E000E22
:1012DC00256E7DEF09F0000E0F6E200E0E6E1EC0F7
:1012EC0010F01FC011F0AAEC09F0254A262A27504D
:1012FC00255C2650800A246E2850800A2458D8A0D9
:10130C008AEF09F08CEF09F071EF09F052B091EF10
:10131C0009F093EF09F09DEF09F020C017F021C000
:10132C0018F01EC019F01FC01AF0EFEC0AF020C024
:10133C0008F021C009F052EC0BF0275008241E6E67
:10134C00285009201F6E120010501110D8B4B1EFA4
:10135C0009F0B3EF09F0BCEF09F010501110D8A44C
:10136C00BAEF09F0BCEF09F0C1EF09F00E50DBEC5D
:10137C000BF0F4EF09F020EE04F01050D9261150C8
:10138C00DA22DE50DE10D8B4CEEF09F0D0EF09F03F
:10139C00EBEF09F020EE04F01050D9261150DA22B0
:1013AC0010EE02F01050E1261150E222DE50E65C05
:1013BC00E650800A166EDE50800A1658D8B0E9EF57
:1013CC0009F0EBEF09F0F4EF09F020EE02F0105009
:1013DC00D9261150DA22DE2A000EDD221200096E07
:1013EC00838209C008F0010E0816083A83500818C9
:1013FC00EF0B0818836E09C008F0D8900832010E64
:10140C000816083A084683500818DF0B0818836E34
:10141C0009C008F0D8900832D8900832010E08168E
:10142C00083A0846084683500818BF0B0818836E04
:10143C0009C008F0D8900832D8900832D8900832F9
:10144C00010E081608320832835008187F0B081852
:10145C00836E100EE82EFED700D08392100EE82E6D
:10146C00FED700D01200026E838202C001F0010E82
:10147C000116013A83500118EF0B0118836E02C05C
:10148C0001F0D8900132010E0116013A0146835049
:10149C000118DF0B0118836E02C001F0D8900132E5
:1014AC00D8900132010E0116013A014601468350D3
:1014BC000118BF0B0118836E02C001F0D8900132E5
:1014CC00D8900132D8900132010E0116013201324E
:1014DC00835001187F0B0118836E100EE82EFED777
:1014EC0000D08392100EE82EFED700D0120083920B
:1014FC008398839A839C839E410E0C6EEE0EE82E8D
:10150C00FED70C2EFCD700D0030EF5EC09F0060E1E
:10151C000C6E300EE82EFED70C2EFCD700D0030E2E
:10152C00F5EC09F0210EE82EFED700F0030EF5ECD9
:10153C0009F0020EF5EC09F0010E0A6E000E96ECA5
:10154C000BF0030E0C6E980EE82EFED70C2EFCD76B
:10155C00280E0A6E000E96EC0BF00C0E0A6E000EA6
:10156C0096EC0BF0060E0A6E000E96EC0BF01200C9
:10157C009CC04FF09DC050F0000E0001616F000E3A
:10158C00606FDCEF0AF09AC08CF09BC08DF04F0EB0
:10159C008E6F000E8F6F9EC090F09FC091F07BEC11
:1015AC0006F000018C5160278D5161234FC0F6FF6E
:1015BC0050C0F7FF0800F5500009D8A4E8EF0AF076
:1015CC00EAEF0AF0C9EF0AF060C09AF061C09BF034
:1015DC001200000E1D6E000E1C6E00EF0BF01BC0F7
:1015EC000EF00F6A19C010F01AC011F0AAEC09F035
:1015FC001C4A1D2A1C501724D96E1D501820DA6E57
:10160C00DF501B6E1B50D8A40EEF0BF010EF0BF03D
:10161C00F5EF0AF012000D6E000E0E6E0D04D8A43C
:10162C001AEF0BF01CEF0BF01EEF0BF0800E0E6E92
:10163C00020E0D18D8A425EF0BF027EF0BF029EFB5
:10164C000BF0C00E0E6E0E500C240E6E0EC00AF077
:10165C00000E96EC0BF012001BBE3FEF0BF01B5074
:10166C0006E11A04D8B03DEF0BF03FEF0BF04DEF55
:10167C000BF01AC01CF01BC01DF01C1E1D1E1C4ABA
:10168C001D2A1CC01AF01DC01BF051EF0BF01AC024
:10169C001AF01BC01BF0120008C00AF009C00BF0B6
:1016AC005AEF0BF0084A092A08C0D9FF09C0DAFF23
:1016BC00DF50D8A464EF0BF066EF0BF058EF0BF093
:1016CC000A50085C086E0B500958096E120000EEA7
:1016DC0060F02C0EEE6AE806FDE1576A566A556A10
:1016EC00546A536A526A58905892000EF86E080E5B
:1016FC00F76E000185EF05F0A20E0001A66F000E3B
:10170C00A76F000E9A6F000E9B6FA0C09CF0A1C03B
:10171C009DF0A60E9E6F000E9F6FBEEC0AF012009D
:10172C000B6E0BB002D0839001D0838000D000D020
:10173C0000F00A380F0BF5EC09F00A500F0BF5EC22
:10174C0009F01200046E04B002D0839001D08380A3
:10175C0000D000D000F003380F0B39EC0AF0035026
:10176C000F0B39EC0AF01200010E0A6E000E96EC0B
:10177C000BF0030E0C6E980EE82EFED70C2EFCD739
:10178C001200010E036E000EA8EC0BF0030E056E9A
:10179C00980EE82EFED7052EFCD712000C6E0CC04E
:1017AC000AF0010E96EC0BF012000D6E0D50D4ECFD
:0417BC000BF012001C
:020000040020DA
:08000000FFFFFFFFFFFFFFFF00
:020000040030CA
:0E00000000001F1EFF8181FF0FC00FE00F40A8
:00000001FF
