:020000040000FA
:0400000003EF00F01A
:020004000000FA
:0A000600006A956A94809482836A70
:1000100082B001D003D082B204D005D082B207D022
:100020000AD008EF00F01DEC00F008EF00F026EC1D
:1000300000F008EF00F008EF00F03FEC00F03FECBC
:1000400000F082B0002A00C083FF12003FEC00F0F5
:100050003FEC00F082B2000600C083FF1200980E51
:10006000016E000000000000000000000000000021
:10007000000000000000012E31EF00F01200FA0E27
:0E008000026E2FEC00F0022E41EF00F0120095
:020000040030CA
:0100010000FE
:010003001EDE
:010006008178
:00000001FF
